{
  "contractName": "Exchange",
  "abi": [
    {
      "anonymous": false,
      "inputs": [
        {
          "indexed": false,
          "internalType": "uint256",
          "name": "id",
          "type": "uint256"
        },
        {
          "indexed": false,
          "internalType": "address",
          "name": "user",
          "type": "address"
        },
        {
          "indexed": false,
          "internalType": "address",
          "name": "tokenGet",
          "type": "address"
        },
        {
          "indexed": false,
          "internalType": "uint256",
          "name": "amountGet",
          "type": "uint256"
        },
        {
          "indexed": false,
          "internalType": "address",
          "name": "tokenGive",
          "type": "address"
        },
        {
          "indexed": false,
          "internalType": "uint256",
          "name": "amountGive",
          "type": "uint256"
        },
        {
          "indexed": false,
          "internalType": "uint256",
          "name": "timestamp",
          "type": "uint256"
        }
      ],
      "name": "Cancel",
      "type": "event"
    },
    {
      "anonymous": false,
      "inputs": [
        {
          "indexed": false,
          "internalType": "address",
          "name": "token",
          "type": "address"
        },
        {
          "indexed": false,
          "internalType": "address",
          "name": "user",
          "type": "address"
        },
        {
          "indexed": false,
          "internalType": "uint256",
          "name": "amount",
          "type": "uint256"
        },
        {
          "indexed": false,
          "internalType": "uint256",
          "name": "balance",
          "type": "uint256"
        }
      ],
      "name": "Deposit",
      "type": "event"
    },
    {
      "anonymous": false,
      "inputs": [
        {
          "indexed": false,
          "internalType": "uint256",
          "name": "id",
          "type": "uint256"
        },
        {
          "indexed": false,
          "internalType": "address",
          "name": "user",
          "type": "address"
        },
        {
          "indexed": false,
          "internalType": "address",
          "name": "tokenGet",
          "type": "address"
        },
        {
          "indexed": false,
          "internalType": "uint256",
          "name": "amountGet",
          "type": "uint256"
        },
        {
          "indexed": false,
          "internalType": "address",
          "name": "tokenGive",
          "type": "address"
        },
        {
          "indexed": false,
          "internalType": "uint256",
          "name": "amountGive",
          "type": "uint256"
        },
        {
          "indexed": false,
          "internalType": "uint256",
          "name": "timestamp",
          "type": "uint256"
        }
      ],
      "name": "Order",
      "type": "event"
    },
    {
      "anonymous": false,
      "inputs": [
        {
          "indexed": false,
          "internalType": "uint256",
          "name": "id",
          "type": "uint256"
        },
        {
          "indexed": false,
          "internalType": "address",
          "name": "user",
          "type": "address"
        },
        {
          "indexed": false,
          "internalType": "address",
          "name": "tokenGet",
          "type": "address"
        },
        {
          "indexed": false,
          "internalType": "uint256",
          "name": "amountGet",
          "type": "uint256"
        },
        {
          "indexed": false,
          "internalType": "address",
          "name": "tokenGive",
          "type": "address"
        },
        {
          "indexed": false,
          "internalType": "uint256",
          "name": "amountGive",
          "type": "uint256"
        },
        {
          "indexed": false,
          "internalType": "address",
          "name": "userFill",
          "type": "address"
        },
        {
          "indexed": false,
          "internalType": "uint256",
          "name": "timestamp",
          "type": "uint256"
        }
      ],
      "name": "Trade",
      "type": "event"
    },
    {
      "anonymous": false,
      "inputs": [
        {
          "indexed": false,
          "internalType": "address",
          "name": "token",
          "type": "address"
        },
        {
          "indexed": false,
          "internalType": "address",
          "name": "user",
          "type": "address"
        },
        {
          "indexed": false,
          "internalType": "uint256",
          "name": "amount",
          "type": "uint256"
        },
        {
          "indexed": false,
          "internalType": "uint256",
          "name": "balance",
          "type": "uint256"
        }
      ],
      "name": "Withdraw",
      "type": "event"
    },
    {
      "stateMutability": "nonpayable",
      "type": "fallback"
    },
    {
      "inputs": [],
      "name": "feeAccount",
      "outputs": [
        {
          "internalType": "address",
          "name": "",
          "type": "address"
        }
      ],
      "stateMutability": "view",
      "type": "function",
      "constant": true
    },
    {
      "inputs": [],
      "name": "feePercent",
      "outputs": [
        {
          "internalType": "uint256",
          "name": "",
          "type": "uint256"
        }
      ],
      "stateMutability": "view",
      "type": "function",
      "constant": true
    },
    {
      "inputs": [
        {
          "internalType": "uint256",
          "name": "",
          "type": "uint256"
        }
      ],
      "name": "orderCancelled",
      "outputs": [
        {
          "internalType": "bool",
          "name": "",
          "type": "bool"
        }
      ],
      "stateMutability": "view",
      "type": "function",
      "constant": true
    },
    {
      "inputs": [],
      "name": "orderCount",
      "outputs": [
        {
          "internalType": "uint256",
          "name": "",
          "type": "uint256"
        }
      ],
      "stateMutability": "view",
      "type": "function",
      "constant": true
    },
    {
      "inputs": [
        {
          "internalType": "uint256",
          "name": "",
          "type": "uint256"
        }
      ],
      "name": "orderFilled",
      "outputs": [
        {
          "internalType": "bool",
          "name": "",
          "type": "bool"
        }
      ],
      "stateMutability": "view",
      "type": "function",
      "constant": true
    },
    {
      "inputs": [
        {
          "internalType": "uint256",
          "name": "",
          "type": "uint256"
        }
      ],
      "name": "orders",
      "outputs": [
        {
          "internalType": "uint256",
          "name": "id",
          "type": "uint256"
        },
        {
          "internalType": "address",
          "name": "user",
          "type": "address"
        },
        {
          "internalType": "address",
          "name": "tokenGet",
          "type": "address"
        },
        {
          "internalType": "uint256",
          "name": "amountGet",
          "type": "uint256"
        },
        {
          "internalType": "address",
          "name": "tokenGive",
          "type": "address"
        },
        {
          "internalType": "uint256",
          "name": "amountGive",
          "type": "uint256"
        },
        {
          "internalType": "uint256",
          "name": "timestamp",
          "type": "uint256"
        }
      ],
      "stateMutability": "view",
      "type": "function",
      "constant": true
    },
    {
      "inputs": [
        {
          "internalType": "address",
          "name": "",
          "type": "address"
        },
        {
          "internalType": "address",
          "name": "",
          "type": "address"
        }
      ],
      "name": "tokens",
      "outputs": [
        {
          "internalType": "uint256",
          "name": "",
          "type": "uint256"
        }
      ],
      "stateMutability": "view",
      "type": "function",
      "constant": true
    },
    {
      "inputs": [
        {
          "internalType": "address",
          "name": "_feeAccount",
          "type": "address"
        },
        {
          "internalType": "uint256",
          "name": "_feePercent",
          "type": "uint256"
        }
      ],
      "name": "initialize",
      "outputs": [],
      "stateMutability": "nonpayable",
      "type": "function"
    },
    {
      "inputs": [],
      "name": "depositEther",
      "outputs": [],
      "stateMutability": "payable",
      "type": "function",
      "payable": true
    },
    {
      "inputs": [
        {
          "internalType": "uint256",
          "name": "_amount",
          "type": "uint256"
        }
      ],
      "name": "withdrawEther",
      "outputs": [],
      "stateMutability": "nonpayable",
      "type": "function"
    },
    {
      "inputs": [
        {
          "internalType": "address",
          "name": "_token",
          "type": "address"
        },
        {
          "internalType": "uint256",
          "name": "_amount",
          "type": "uint256"
        }
      ],
      "name": "depositToken",
      "outputs": [],
      "stateMutability": "nonpayable",
      "type": "function"
    },
    {
      "inputs": [
        {
          "internalType": "address",
          "name": "_token",
          "type": "address"
        },
        {
          "internalType": "uint256",
          "name": "_amount",
          "type": "uint256"
        }
      ],
      "name": "withdrawToken",
      "outputs": [],
      "stateMutability": "nonpayable",
      "type": "function"
    },
    {
      "inputs": [
        {
          "internalType": "address",
          "name": "_token",
          "type": "address"
        },
        {
          "internalType": "address",
          "name": "_user",
          "type": "address"
        }
      ],
      "name": "balanceOf",
      "outputs": [
        {
          "internalType": "uint256",
          "name": "",
          "type": "uint256"
        }
      ],
      "stateMutability": "view",
      "type": "function",
      "constant": true
    },
    {
      "inputs": [
        {
          "internalType": "address",
          "name": "_tokenGet",
          "type": "address"
        },
        {
          "internalType": "uint256",
          "name": "_amountGet",
          "type": "uint256"
        },
        {
          "internalType": "address",
          "name": "_tokenGive",
          "type": "address"
        },
        {
          "internalType": "uint256",
          "name": "_amountGive",
          "type": "uint256"
        }
      ],
      "name": "makeOrder",
      "outputs": [],
      "stateMutability": "nonpayable",
      "type": "function"
    },
    {
      "inputs": [
        {
          "internalType": "uint256",
          "name": "_id",
          "type": "uint256"
        }
      ],
      "name": "cancelOrder",
      "outputs": [],
      "stateMutability": "nonpayable",
      "type": "function"
    },
    {
      "inputs": [
        {
          "internalType": "uint256",
          "name": "_id",
          "type": "uint256"
        }
      ],
      "name": "fillOrder",
      "outputs": [],
      "stateMutability": "nonpayable",
      "type": "function"
    }
  ],
  "bytecode": "0x608060405234801561001057600080fd5b50612210806100206000396000f3fe6080604052600436106100f75760003560e01c80637fd6f15c1161008a578063a85c38ef11610059578063a85c38ef14610305578063cd6dc68714610348578063e9c1896614610371578063f7888aec146103ae576100f8565b80637fd6f15c1461027e57806398ea5fca146102a95780639a5c90aa146102b35780639e281a98146102dc576100f8565b8063508493bc116100c6578063508493bc146101c4578063514fcac71461020157806365e17c9d1461022a57806367b830ad14610255576100f8565b80632453ffa81461010a578063338b5dea146101355780633bed33ce1461015e5780634a93e0da14610187576100f8565b5b34801561010457600080fd5b50600080fd5b34801561011657600080fd5b5061011f6103eb565b60405161012c9190611b72565b60405180910390f35b34801561014157600080fd5b5061015c60048036038101906101579190611c1c565b6103f1565b005b34801561016a57600080fd5b5061018560048036038101906101809190611c5c565b610679565b005b34801561019357600080fd5b506101ae60048036038101906101a99190611c5c565b61090e565b6040516101bb9190611ca4565b60405180910390f35b3480156101d057600080fd5b506101eb60048036038101906101e69190611cbf565b61092e565b6040516101f89190611b72565b60405180910390f35b34801561020d57600080fd5b5061022860048036038101906102239190611c5c565b610953565b005b34801561023657600080fd5b5061023f610a9d565b60405161024c9190611d0e565b60405180910390f35b34801561026157600080fd5b5061027c60048036038101906102779190611c5c565b610ac3565b005b34801561028a57600080fd5b50610293610c05565b6040516102a09190611b72565b60405180910390f35b6102b1610c0b565b005b3480156102bf57600080fd5b506102da60048036038101906102d59190611d29565b610dcf565b005b3480156102e857600080fd5b5061030360048036038101906102fe9190611c1c565b610fbe565b005b34801561031157600080fd5b5061032c60048036038101906103279190611c5c565b6112cd565b60405161033f9796959493929190611d90565b60405180910390f35b34801561035457600080fd5b5061036f600480360381019061036a9190611c1c565b61136f565b005b34801561037d57600080fd5b5061039860048036038101906103939190611c5c565b61149d565b6040516103a59190611ca4565b60405180910390f35b3480156103ba57600080fd5b506103d560048036038101906103d09190611cbf565b6114bd565b6040516103e29190611b72565b60405180910390f35b60025481565b600073ffffffffffffffffffffffffffffffffffffffff168273ffffffffffffffffffffffffffffffffffffffff16141561042b57600080fd5b8173ffffffffffffffffffffffffffffffffffffffff166323b872dd3330846040518463ffffffff1660e01b815260040161046893929190611dff565b6020604051808303816000875af1158015610487573d6000803e3d6000fd5b505050506040513d601f19601f820116820180604052508101906104ab9190611e62565b6104b457600080fd5b80600360008473ffffffffffffffffffffffffffffffffffffffff1673ffffffffffffffffffffffffffffffffffffffff16815260200190815260200160002060003373ffffffffffffffffffffffffffffffffffffffff1673ffffffffffffffffffffffffffffffffffffffff1681526020019081526020016000205461053c9190611ebe565b600360008473ffffffffffffffffffffffffffffffffffffffff1673ffffffffffffffffffffffffffffffffffffffff16815260200190815260200160002060003373ffffffffffffffffffffffffffffffffffffffff1673ffffffffffffffffffffffffffffffffffffffff168152602001908152602001600020819055507fdcbc1c05240f31ff3ad067ef1ee35ce4997762752e3a095284754544f4c709d7823383600360008773ffffffffffffffffffffffffffffffffffffffff1673ffffffffffffffffffffffffffffffffffffffff16815260200190815260200160002060003373ffffffffffffffffffffffffffffffffffffffff1673ffffffffffffffffffffffffffffffffffffffff1681526020019081526020016000205460405161066d9493929190611f14565b60405180910390a15050565b80600360008073ffffffffffffffffffffffffffffffffffffffff1673ffffffffffffffffffffffffffffffffffffffff16815260200190815260200160002060003373ffffffffffffffffffffffffffffffffffffffff1673ffffffffffffffffffffffffffffffffffffffff16815260200190815260200160002054101561070257600080fd5b80600360008073ffffffffffffffffffffffffffffffffffffffff1673ffffffffffffffffffffffffffffffffffffffff16815260200190815260200160002060003373ffffffffffffffffffffffffffffffffffffffff1673ffffffffffffffffffffffffffffffffffffffff1681526020019081526020016000205461078a9190611f59565b600360008073ffffffffffffffffffffffffffffffffffffffff1673ffffffffffffffffffffffffffffffffffffffff16815260200190815260200160002060003373ffffffffffffffffffffffffffffffffffffffff1673ffffffffffffffffffffffffffffffffffffffff168152602001908152602001600020819055503373ffffffffffffffffffffffffffffffffffffffff166108fc829081150290604051600060405180830381858888f19350505050158015610850573d6000803e3d6000fd5b507ff341246adaac6f497bc2a656f546ab9e182111d630394f0c57c710a59a2cb56760003383600360008073ffffffffffffffffffffffffffffffffffffffff1673ffffffffffffffffffffffffffffffffffffffff16815260200190815260200160002060003373ffffffffffffffffffffffffffffffffffffffff1673ffffffffffffffffffffffffffffffffffffffff168152602001908152602001600020546040516109039493929190611f14565b60405180910390a150565b60066020528060005260406000206000915054906101000a900460ff1681565b6003602052816000526040600020602052806000526040600020600091509150505481565b60006004600083815260200190815260200160002090508060010160009054906101000a900473ffffffffffffffffffffffffffffffffffffffff1673ffffffffffffffffffffffffffffffffffffffff163373ffffffffffffffffffffffffffffffffffffffff16146109c657600080fd5b818160000154146109d657600080fd5b60016005600084815260200190815260200160002060006101000a81548160ff0219169083151502179055507f77de1da0be5f2d3b110d05c6694e5c4ff2d9da7cd23d84353ecf78c7b5acec618160000154338360020160009054906101000a900473ffffffffffffffffffffffffffffffffffffffff1684600301548560040160009054906101000a900473ffffffffffffffffffffffffffffffffffffffff16866005015442604051610a919796959493929190611d90565b60405180910390a15050565b600060029054906101000a900473ffffffffffffffffffffffffffffffffffffffff1681565b600081118015610ad557506002548111155b610ade57600080fd5b6006600082815260200190815260200160002060009054906101000a900460ff1615610b0957600080fd5b6005600082815260200190815260200160002060009054906101000a900460ff1615610b3457600080fd5b6000600460008381526020019081526020016000209050610bd181600001548260010160009054906101000a900473ffffffffffffffffffffffffffffffffffffffff168360020160009054906101000a900473ffffffffffffffffffffffffffffffffffffffff1684600301548560040160009054906101000a900473ffffffffffffffffffffffffffffffffffffffff168660050154611544565b6001600660008360000154815260200190815260200160002060006101000a81548160ff0219169083151502179055505050565b60015481565b34600360008073ffffffffffffffffffffffffffffffffffffffff1673ffffffffffffffffffffffffffffffffffffffff16815260200190815260200160002060003373ffffffffffffffffffffffffffffffffffffffff1673ffffffffffffffffffffffffffffffffffffffff16815260200190815260200160002054610c939190611ebe565b600360008073ffffffffffffffffffffffffffffffffffffffff1673ffffffffffffffffffffffffffffffffffffffff16815260200190815260200160002060003373ffffffffffffffffffffffffffffffffffffffff1673ffffffffffffffffffffffffffffffffffffffff168152602001908152602001600020819055507fdcbc1c05240f31ff3ad067ef1ee35ce4997762752e3a095284754544f4c709d760003334600360008073ffffffffffffffffffffffffffffffffffffffff1673ffffffffffffffffffffffffffffffffffffffff16815260200190815260200160002060003373ffffffffffffffffffffffffffffffffffffffff1673ffffffffffffffffffffffffffffffffffffffff16815260200190815260200160002054604051610dc59493929190611f14565b60405180910390a1565b60026000815480929190610de290611f8d565b91905055506040518060e0016040528060025481526020013373ffffffffffffffffffffffffffffffffffffffff1681526020018573ffffffffffffffffffffffffffffffffffffffff1681526020018481526020018373ffffffffffffffffffffffffffffffffffffffff168152602001828152602001428152506004600060025481526020019081526020016000206000820151816000015560208201518160010160006101000a81548173ffffffffffffffffffffffffffffffffffffffff021916908373ffffffffffffffffffffffffffffffffffffffff16021790555060408201518160020160006101000a81548173ffffffffffffffffffffffffffffffffffffffff021916908373ffffffffffffffffffffffffffffffffffffffff1602179055506060820151816003015560808201518160040160006101000a81548173ffffffffffffffffffffffffffffffffffffffff021916908373ffffffffffffffffffffffffffffffffffffffff16021790555060a0820151816005015560c082015181600601559050507f9d33853d43e3607b4cc01fdc78338ff2dca6fef7db9232dae6d3eb55fbc3b109600254338686868642604051610fb09796959493929190611d90565b60405180910390a150505050565b600073ffffffffffffffffffffffffffffffffffffffff168273ffffffffffffffffffffffffffffffffffffffff161415610ff857600080fd5b80600360008473ffffffffffffffffffffffffffffffffffffffff1673ffffffffffffffffffffffffffffffffffffffff16815260200190815260200160002060003373ffffffffffffffffffffffffffffffffffffffff1673ffffffffffffffffffffffffffffffffffffffff16815260200190815260200160002054101561108157600080fd5b80600360008473ffffffffffffffffffffffffffffffffffffffff1673ffffffffffffffffffffffffffffffffffffffff16815260200190815260200160002060003373ffffffffffffffffffffffffffffffffffffffff1673ffffffffffffffffffffffffffffffffffffffff168152602001908152602001600020546111099190611f59565b600360008473ffffffffffffffffffffffffffffffffffffffff1673ffffffffffffffffffffffffffffffffffffffff16815260200190815260200160002060003373ffffffffffffffffffffffffffffffffffffffff1673ffffffffffffffffffffffffffffffffffffffff168152602001908152602001600020819055508173ffffffffffffffffffffffffffffffffffffffff1663a9059cbb33836040518363ffffffff1660e01b81526004016111c4929190611fd6565b6020604051808303816000875af11580156111e3573d6000803e3d6000fd5b505050506040513d601f19601f820116820180604052508101906112079190611e62565b61121057600080fd5b7ff341246adaac6f497bc2a656f546ab9e182111d630394f0c57c710a59a2cb567823383600360008773ffffffffffffffffffffffffffffffffffffffff1673ffffffffffffffffffffffffffffffffffffffff16815260200190815260200160002060003373ffffffffffffffffffffffffffffffffffffffff1673ffffffffffffffffffffffffffffffffffffffff168152602001908152602001600020546040516112c19493929190611f14565b60405180910390a15050565b60046020528060005260406000206000915090508060000154908060010160009054906101000a900473ffffffffffffffffffffffffffffffffffffffff16908060020160009054906101000a900473ffffffffffffffffffffffffffffffffffffffff16908060030154908060040160009054906101000a900473ffffffffffffffffffffffffffffffffffffffff16908060050154908060060154905087565b600060019054906101000a900460ff166113975760008054906101000a900460ff16156113a0565b61139f611b25565b5b6113df576040517f08c379a00000000000000000000000000000000000000000000000000000000081526004016113d690612082565b60405180910390fd5b60008060019054906101000a900460ff16159050801561142f576001600060016101000a81548160ff02191690831515021790555060016000806101000a81548160ff0219169083151502179055505b82600060026101000a81548173ffffffffffffffffffffffffffffffffffffffff021916908373ffffffffffffffffffffffffffffffffffffffff1602179055508160018190555080156114985760008060016101000a81548160ff0219169083151502179055505b505050565b60056020528060005260406000206000915054906101000a900460ff1681565b6000600360008473ffffffffffffffffffffffffffffffffffffffff1673ffffffffffffffffffffffffffffffffffffffff16815260200190815260200160002060008373ffffffffffffffffffffffffffffffffffffffff1673ffffffffffffffffffffffffffffffffffffffff16815260200190815260200160002054905092915050565b600060646001548561155691906120a2565b611560919061212b565b9050808461156e9190611ebe565b600360008773ffffffffffffffffffffffffffffffffffffffff1673ffffffffffffffffffffffffffffffffffffffff16815260200190815260200160002060003373ffffffffffffffffffffffffffffffffffffffff1673ffffffffffffffffffffffffffffffffffffffff168152602001908152602001600020546115f59190611f59565b600360008773ffffffffffffffffffffffffffffffffffffffff1673ffffffffffffffffffffffffffffffffffffffff16815260200190815260200160002060003373ffffffffffffffffffffffffffffffffffffffff1673ffffffffffffffffffffffffffffffffffffffff1681526020019081526020016000208190555083600360008773ffffffffffffffffffffffffffffffffffffffff1673ffffffffffffffffffffffffffffffffffffffff16815260200190815260200160002060008873ffffffffffffffffffffffffffffffffffffffff1673ffffffffffffffffffffffffffffffffffffffff168152602001908152602001600020546116fd9190611ebe565b600360008773ffffffffffffffffffffffffffffffffffffffff1673ffffffffffffffffffffffffffffffffffffffff16815260200190815260200160002060008873ffffffffffffffffffffffffffffffffffffffff1673ffffffffffffffffffffffffffffffffffffffff1681526020019081526020016000208190555081600360008573ffffffffffffffffffffffffffffffffffffffff1673ffffffffffffffffffffffffffffffffffffffff16815260200190815260200160002060008873ffffffffffffffffffffffffffffffffffffffff1673ffffffffffffffffffffffffffffffffffffffff168152602001908152602001600020546118059190611f59565b600360008573ffffffffffffffffffffffffffffffffffffffff1673ffffffffffffffffffffffffffffffffffffffff16815260200190815260200160002060008873ffffffffffffffffffffffffffffffffffffffff1673ffffffffffffffffffffffffffffffffffffffff1681526020019081526020016000208190555081600360008573ffffffffffffffffffffffffffffffffffffffff1673ffffffffffffffffffffffffffffffffffffffff16815260200190815260200160002060003373ffffffffffffffffffffffffffffffffffffffff1673ffffffffffffffffffffffffffffffffffffffff1681526020019081526020016000205461190d9190611ebe565b600360008573ffffffffffffffffffffffffffffffffffffffff1673ffffffffffffffffffffffffffffffffffffffff16815260200190815260200160002060003373ffffffffffffffffffffffffffffffffffffffff1673ffffffffffffffffffffffffffffffffffffffff1681526020019081526020016000208190555080600360008773ffffffffffffffffffffffffffffffffffffffff1673ffffffffffffffffffffffffffffffffffffffff16815260200190815260200160002060008060029054906101000a900473ffffffffffffffffffffffffffffffffffffffff1673ffffffffffffffffffffffffffffffffffffffff1673ffffffffffffffffffffffffffffffffffffffff16815260200190815260200160002054611a369190611ebe565b600360008773ffffffffffffffffffffffffffffffffffffffff1673ffffffffffffffffffffffffffffffffffffffff16815260200190815260200160002060008060029054906101000a900473ffffffffffffffffffffffffffffffffffffffff1673ffffffffffffffffffffffffffffffffffffffff1673ffffffffffffffffffffffffffffffffffffffff168152602001908152602001600020819055507f0dddf4182dc0fc1a311cb75f049c97403c6b8a99cf6b2229a36e7c526acb3f818787878787873342604051611b1498979695949392919061215c565b60405180910390a150505050505050565b6000611b3030611b36565b15905090565b6000808273ffffffffffffffffffffffffffffffffffffffff163b119050919050565b6000819050919050565b611b6c81611b59565b82525050565b6000602082019050611b876000830184611b63565b92915050565b600080fd5b600073ffffffffffffffffffffffffffffffffffffffff82169050919050565b6000611bbd82611b92565b9050919050565b611bcd81611bb2565b8114611bd857600080fd5b50565b600081359050611bea81611bc4565b92915050565b611bf981611b59565b8114611c0457600080fd5b50565b600081359050611c1681611bf0565b92915050565b60008060408385031215611c3357611c32611b8d565b5b6000611c4185828601611bdb565b9250506020611c5285828601611c07565b9150509250929050565b600060208284031215611c7257611c71611b8d565b5b6000611c8084828501611c07565b91505092915050565b60008115159050919050565b611c9e81611c89565b82525050565b6000602082019050611cb96000830184611c95565b92915050565b60008060408385031215611cd657611cd5611b8d565b5b6000611ce485828601611bdb565b9250506020611cf585828601611bdb565b9150509250929050565b611d0881611bb2565b82525050565b6000602082019050611d236000830184611cff565b92915050565b60008060008060808587031215611d4357611d42611b8d565b5b6000611d5187828801611bdb565b9450506020611d6287828801611c07565b9350506040611d7387828801611bdb565b9250506060611d8487828801611c07565b91505092959194509250565b600060e082019050611da5600083018a611b63565b611db26020830189611cff565b611dbf6040830188611cff565b611dcc6060830187611b63565b611dd96080830186611cff565b611de660a0830185611b63565b611df360c0830184611b63565b98975050505050505050565b6000606082019050611e146000830186611cff565b611e216020830185611cff565b611e2e6040830184611b63565b949350505050565b611e3f81611c89565b8114611e4a57600080fd5b50565b600081519050611e5c81611e36565b92915050565b600060208284031215611e7857611e77611b8d565b5b6000611e8684828501611e4d565b91505092915050565b7f4e487b7100000000000000000000000000000000000000000000000000000000600052601160045260246000fd5b6000611ec982611b59565b9150611ed483611b59565b9250827fffffffffffffffffffffffffffffffffffffffffffffffffffffffffffffffff03821115611f0957611f08611e8f565b5b828201905092915050565b6000608082019050611f296000830187611cff565b611f366020830186611cff565b611f436040830185611b63565b611f506060830184611b63565b95945050505050565b6000611f6482611b59565b9150611f6f83611b59565b925082821015611f8257611f81611e8f565b5b828203905092915050565b6000611f9882611b59565b91507fffffffffffffffffffffffffffffffffffffffffffffffffffffffffffffffff821415611fcb57611fca611e8f565b5b600182019050919050565b6000604082019050611feb6000830185611cff565b611ff86020830184611b63565b9392505050565b600082825260208201905092915050565b7f496e697469616c697a61626c653a20636f6e747261637420697320616c72656160008201527f647920696e697469616c697a6564000000000000000000000000000000000000602082015250565b600061206c602e83611fff565b915061207782612010565b604082019050919050565b6000602082019050818103600083015261209b8161205f565b9050919050565b60006120ad82611b59565b91506120b883611b59565b9250817fffffffffffffffffffffffffffffffffffffffffffffffffffffffffffffffff04831182151516156120f1576120f0611e8f565b5b828202905092915050565b7f4e487b7100000000000000000000000000000000000000000000000000000000600052601260045260246000fd5b600061213682611b59565b915061214183611b59565b925082612151576121506120fc565b5b828204905092915050565b600061010082019050612172600083018b611b63565b61217f602083018a611cff565b61218c6040830189611cff565b6121996060830188611b63565b6121a66080830187611cff565b6121b360a0830186611b63565b6121c060c0830185611cff565b6121cd60e0830184611b63565b999850505050505050505056fea264697066735822122012fbfa217ea606856d559de97d9afbf09c4d76992b01ba3234d7c15193c8229364736f6c634300080b0033",
  "immutableReferences": {},
  "source": "pragma solidity ^0.8.11;\n\nimport \"./PoiToken.sol\";\n\nimport \"@openzeppelin/contracts-upgradeable/proxy/utils/Initializable.sol\";\n\ncontract Exchange is Initializable{\n\taddress public feeAccount; //account to receive exchange fees\n\tuint256 public feePercent; // fee percentage\n\taddress constant ETHER = address(0); // Placeholder ether address\n\tuint256 public orderCount;\n\n\tmapping(address => mapping(address => uint256)) public tokens;\n\tmapping(uint256 => _Order) public orders;\n\tmapping(uint256 => bool) public orderCancelled;\n\tmapping(uint256 => bool) public orderFilled;\n\n\tevent Deposit(address token, address user, uint256 amount, uint256 balance);\n\tevent Withdraw(address token, address user, uint256 amount, uint256 balance);\n\tevent Order(\n\t\tuint256 id,\n\t\taddress user,\n\t\taddress tokenGet,\n\t\tuint256 amountGet,\n\t\taddress tokenGive,\n\t\tuint256 amountGive,\n\t\tuint256 timestamp\n\t);\n\tevent Cancel(\n\t\tuint256 id,\n\t\taddress user,\n\t\taddress tokenGet,\n\t\tuint256 amountGet,\n\t\taddress tokenGive,\n\t\tuint256 amountGive,\n\t\tuint256 timestamp\n\t);\n\tevent Trade(\n\t\tuint256 id,\n\t\taddress user,\n\t\taddress tokenGet,\n\t\tuint256 amountGet,\n\t\taddress tokenGive,\n\t\tuint256 amountGive,\n\t\taddress userFill,\n\t\tuint256 timestamp\n\t);\n\n\tstruct _Order{\n\t\tuint256 id;\n\t\taddress user;\n\t\taddress tokenGet;\n\t\tuint256 amountGet;\n\t\taddress tokenGive;\n\t\tuint256 amountGive;\n\t\tuint256 timestamp;\n\t}\n\n\t// constructor(address _feeAccount, uint256 _feePercent) {\n\t// \tfeeAccount = _feeAccount;\n\t// \tfeePercent = _feePercent;\n\t// }\n\n\tfunction initialize(address _feeAccount, uint256 _feePercent) public initializer {\n        feeAccount = _feeAccount;\n\t\tfeePercent = _feePercent;\n    }\n\n\t// Fallback function to revert ether sent to this smart contract by mistake\n\tfallback() external{\n\t\trevert();\n\t}\n\tfunction depositEther() public payable{\n\t\ttokens[ETHER][msg.sender] = tokens[ETHER][msg.sender] + msg.value;\n\t\temit Deposit(ETHER, msg.sender, msg.value, tokens[ETHER][msg.sender]);\n\t}\n\n\tfunction withdrawEther(uint256 _amount) public{\n\t\trequire(tokens[ETHER][msg.sender] >= _amount);\n\t\ttokens[ETHER][msg.sender] = tokens[ETHER][msg.sender] - _amount;\n\t\tpayable(msg.sender).transfer(_amount);\n\t\temit Withdraw(ETHER, msg.sender, _amount, tokens[ETHER][msg.sender]);\n\t}\n\n\tfunction depositToken(address _token, uint256 _amount) public {\n\t\trequire(_token != ETHER);\n\t\trequire(PoiToken(_token).transferFrom(msg.sender, address(this), _amount));\n\t\ttokens[_token][msg.sender] = tokens[_token][msg.sender] + _amount;\n\n\t\temit Deposit(_token, msg.sender, _amount, tokens[_token][msg.sender]);\n\t}\n\n\tfunction withdrawToken(address _token, uint256 _amount) public {\n\t\trequire(_token != ETHER);\n\t\trequire(tokens[_token][msg.sender] >= _amount);\n\n\t\ttokens[_token][msg.sender] = tokens[_token][msg.sender] - _amount;\n\t\trequire(PoiToken(_token).transfer(msg.sender, _amount));\n\t\temit Withdraw(_token, msg.sender, _amount, tokens[_token][msg.sender]);\n\t}\n\n\tfunction balanceOf (address _token, address _user) public view returns (uint256){\n\t\treturn tokens[_token][_user];\n\t}\n\n\tfunction makeOrder(address _tokenGet, uint256 _amountGet, address _tokenGive, uint256 _amountGive) public {\n\t\torderCount++;\n\t\torders[orderCount] = _Order(orderCount, msg.sender, _tokenGet, _amountGet, _tokenGive, _amountGive, block.timestamp);\n\t\temit Order(orderCount, msg.sender, _tokenGet, _amountGet, _tokenGive, _amountGive, block.timestamp);\n\t}\n\n\tfunction cancelOrder(uint256 _id) public {\n\t\t_Order storage _order = orders[_id];\n\t\trequire(msg.sender == address(_order.user));\n\t\trequire(_order.id == _id);\n\n\t\torderCancelled[_id] = true;\n\t\temit Cancel(_order.id, msg.sender, _order.tokenGet, _order.amountGet, _order.tokenGive, _order.amountGive, block.timestamp);\n\t}\n\n\tfunction fillOrder(uint256 _id) public {\n\t\trequire(_id > 0 && _id <= orderCount);\n\t\trequire(!orderFilled[_id]);\n\t\trequire(!orderCancelled[_id]);\n\n\t\t_Order storage _order = orders[_id];\n\t\t_trade(_order.id, _order.user, _order.tokenGet, _order.amountGet, _order.tokenGive, _order.amountGive);\n\t\torderFilled[_order.id] = true;\n\t}\n\n\t// Function lets msg.sender fill user1's order \n\tfunction _trade(uint256 _orderId, address _user, address _tokenGet,\n\t uint256 _amountGet, address _tokenGive, uint256 _amountGive) internal {\n\n\t \t// Fee is paid by the user that fills the order. A.k.a msg.sender\n\t \tuint256 _feeAmount = (_amountGet * feePercent) / 100; \n\n\t\ttokens[_tokenGet][msg.sender] = tokens[_tokenGet][msg.sender] - (_amountGet + _feeAmount);\n\t\ttokens[_tokenGet][_user] = tokens[_tokenGet][_user] + _amountGet;\n\t\ttokens[_tokenGive][_user] = tokens[_tokenGive][_user] - _amountGive;\n\t\ttokens[_tokenGive][msg.sender] = tokens[_tokenGive][msg.sender] + _amountGive;\n\n\t\t// Fee is collected by feeAccount\n\t\ttokens[_tokenGet][feeAccount] = tokens[_tokenGet][feeAccount] + _feeAmount;\n\n\t\temit Trade(_orderId, _user, _tokenGet, _amountGet, _tokenGive, _amountGive, msg.sender, block.timestamp);\n\t}\n\n}",
  "sourcePath": "/Users/minjaelee/Documents/ERC-20/code/gix2/src/contracts/Exchange.sol",
  "compiler": {
    "name": "solc",
    "version": "0.8.11+commit.d7f03943.Emscripten.clang"
  },
  "schemaVersion": "3.4.3",
  "updatedAt": "2022-03-10T13:40:42.808Z",
  "networkType": "ethereum",
  "devdoc": {
    "kind": "dev",
    "methods": {},
    "version": 1
  },
  "userdoc": {
    "kind": "user",
    "methods": {},
    "version": 1
  }
}